{
  "contractName": "DecentralBank",
  "abi": [
    {
      "inputs": [
        {
          "internalType": "contract RWD",
          "name": "_rwd",
          "type": "address"
        },
        {
          "internalType": "contract Tether",
          "name": "_tether",
          "type": "address"
        }
      ],
      "stateMutability": "nonpayable",
      "type": "constructor"
    },
    {
      "inputs": [
        {
          "internalType": "address",
          "name": "",
          "type": "address"
        }
      ],
      "name": "hasStaked",
      "outputs": [
        {
          "internalType": "bool",
          "name": "",
          "type": "bool"
        }
      ],
      "stateMutability": "view",
      "type": "function",
      "constant": true
    },
    {
      "inputs": [
        {
          "internalType": "address",
          "name": "",
          "type": "address"
        }
      ],
      "name": "isStaking",
      "outputs": [
        {
          "internalType": "bool",
          "name": "",
          "type": "bool"
        }
      ],
      "stateMutability": "view",
      "type": "function",
      "constant": true
    },
    {
      "inputs": [],
      "name": "name",
      "outputs": [
        {
          "internalType": "string",
          "name": "",
          "type": "string"
        }
      ],
      "stateMutability": "view",
      "type": "function",
      "constant": true
    },
    {
      "inputs": [],
      "name": "owner",
      "outputs": [
        {
          "internalType": "address",
          "name": "",
          "type": "address"
        }
      ],
      "stateMutability": "view",
      "type": "function",
      "constant": true
    },
    {
      "inputs": [],
      "name": "rwd",
      "outputs": [
        {
          "internalType": "contract RWD",
          "name": "",
          "type": "address"
        }
      ],
      "stateMutability": "view",
      "type": "function",
      "constant": true
    },
    {
      "inputs": [
        {
          "internalType": "uint256",
          "name": "",
          "type": "uint256"
        }
      ],
      "name": "stakers",
      "outputs": [
        {
          "internalType": "address",
          "name": "",
          "type": "address"
        }
      ],
      "stateMutability": "view",
      "type": "function",
      "constant": true
    },
    {
      "inputs": [
        {
          "internalType": "address",
          "name": "",
          "type": "address"
        }
      ],
      "name": "stakingBalance",
      "outputs": [
        {
          "internalType": "uint256",
          "name": "",
          "type": "uint256"
        }
      ],
      "stateMutability": "view",
      "type": "function",
      "constant": true
    },
    {
      "inputs": [],
      "name": "tether",
      "outputs": [
        {
          "internalType": "contract Tether",
          "name": "",
          "type": "address"
        }
      ],
      "stateMutability": "view",
      "type": "function",
      "constant": true
    },
    {
      "inputs": [
        {
          "internalType": "uint256",
          "name": "_amount",
          "type": "uint256"
        }
      ],
      "name": "depositTokens",
      "outputs": [],
      "stateMutability": "nonpayable",
      "type": "function"
    }
  ],
  "bytecode": "0x60806040526040518060400160405280600e81526020017f446563656e7472616c2042616e6b000000000000000000000000000000000000815250600090816200004a919062000382565b503480156200005857600080fd5b50604051620010e7380380620010e783398181016040528101906200007e91906200052c565b81600360006101000a81548173ffffffffffffffffffffffffffffffffffffffff021916908373ffffffffffffffffffffffffffffffffffffffff16021790555080600260006101000a81548173ffffffffffffffffffffffffffffffffffffffff021916908373ffffffffffffffffffffffffffffffffffffffff160217905550505062000573565b600081519050919050565b7f4e487b7100000000000000000000000000000000000000000000000000000000600052604160045260246000fd5b7f4e487b7100000000000000000000000000000000000000000000000000000000600052602260045260246000fd5b600060028204905060018216806200018a57607f821691505b602082108103620001a0576200019f62000142565b5b50919050565b60008190508160005260206000209050919050565b60006020601f8301049050919050565b600082821b905092915050565b6000600883026200020a7fffffffffffffffffffffffffffffffffffffffffffffffffffffffffffffffff82620001cb565b620002168683620001cb565b95508019841693508086168417925050509392505050565b6000819050919050565b6000819050919050565b6000620002636200025d62000257846200022e565b62000238565b6200022e565b9050919050565b6000819050919050565b6200027f8362000242565b620002976200028e826200026a565b848454620001d8565b825550505050565b600090565b620002ae6200029f565b620002bb81848462000274565b505050565b5b81811015620002e357620002d7600082620002a4565b600181019050620002c1565b5050565b601f8211156200033257620002fc81620001a6565b6200030784620001bb565b8101602085101562000317578190505b6200032f6200032685620001bb565b830182620002c0565b50505b505050565b600082821c905092915050565b6000620003576000198460080262000337565b1980831691505092915050565b600062000372838362000344565b9150826002028217905092915050565b6200038d8262000108565b67ffffffffffffffff811115620003a957620003a862000113565b5b620003b5825462000171565b620003c2828285620002e7565b600060209050601f831160018114620003fa5760008415620003e5578287015190505b620003f1858262000364565b86555062000461565b601f1984166200040a86620001a6565b60005b8281101562000434578489015182556001820191506020850194506020810190506200040d565b8683101562000454578489015162000450601f89168262000344565b8355505b6001600288020188555050505b505050505050565b600080fd5b600073ffffffffffffffffffffffffffffffffffffffff82169050919050565b60006200049b826200046e565b9050919050565b6000620004af826200048e565b9050919050565b620004c181620004a2565b8114620004cd57600080fd5b50565b600081519050620004e181620004b6565b92915050565b6000620004f4826200048e565b9050919050565b6200050681620004e7565b81146200051257600080fd5b50565b6000815190506200052681620004fb565b92915050565b6000806040838503121562000546576200054562000469565b5b60006200055685828601620004d0565b9250506020620005698582860162000515565b9150509250929050565b610b6480620005836000396000f3fe608060405234801561001057600080fd5b50600436106100935760003560e01c80636f49712b116100665780636f49712b146101225780638da5cb5b14610152578063c93c8f3414610170578063dd49756e146101a0578063fd5e6dd1146101bc57610093565b806306fdde03146100985780631a8972d3146100b657806345bc78ab146100d45780635efc071a14610104575b600080fd5b6100a06101ec565b6040516100ad91906106f8565b60405180910390f35b6100be61027a565b6040516100cb9190610799565b60405180910390f35b6100ee60048036038101906100e991906107f7565b6102a0565b6040516100fb919061083d565b60405180910390f35b61010c6102b8565b6040516101199190610879565b60405180910390f35b61013c600480360381019061013791906107f7565b6102de565b60405161014991906108af565b60405180910390f35b61015a6102fe565b60405161016791906108d9565b60405180910390f35b61018a600480360381019061018591906107f7565b610324565b60405161019791906108af565b60405180910390f35b6101ba60048036038101906101b59190610920565b610344565b005b6101d660048036038101906101d19190610920565b610620565b6040516101e391906108d9565b60405180910390f35b600080546101f99061097c565b80601f01602080910402602001604051908101604052809291908181526020018280546102259061097c565b80156102725780601f1061024757610100808354040283529160200191610272565b820191906000526020600020905b81548152906001019060200180831161025557829003601f168201915b505050505081565b600360009054906101000a900473ffffffffffffffffffffffffffffffffffffffff1681565b60056020528060005260406000206000915090505481565b600260009054906101000a900473ffffffffffffffffffffffffffffffffffffffff1681565b60076020528060005260406000206000915054906101000a900460ff1681565b600160009054906101000a900473ffffffffffffffffffffffffffffffffffffffff1681565b60066020528060005260406000206000915054906101000a900460ff1681565b60008111610387576040517f08c379a000000000000000000000000000000000000000000000000000000000815260040161037e906109f9565b60405180910390fd5b600260009054906101000a900473ffffffffffffffffffffffffffffffffffffffff1673ffffffffffffffffffffffffffffffffffffffff166323b872dd3330846040518463ffffffff1660e01b81526004016103e693929190610a19565b6020604051808303816000875af1158015610405573d6000803e3d6000fd5b505050506040513d601f19601f820116820180604052508101906104299190610a7c565b5080600560003373ffffffffffffffffffffffffffffffffffffffff1673ffffffffffffffffffffffffffffffffffffffff168152602001908152602001600020546104759190610ad8565b600560003373ffffffffffffffffffffffffffffffffffffffff1673ffffffffffffffffffffffffffffffffffffffff16815260200190815260200160002081905550600660003373ffffffffffffffffffffffffffffffffffffffff1673ffffffffffffffffffffffffffffffffffffffff16815260200190815260200160002060009054906101000a900460ff1661056d576004339080600181540180825580915050600190039060005260206000200160009091909190916101000a81548173ffffffffffffffffffffffffffffffffffffffff021916908373ffffffffffffffffffffffffffffffffffffffff1602179055505b6001600760003373ffffffffffffffffffffffffffffffffffffffff1673ffffffffffffffffffffffffffffffffffffffff16815260200190815260200160002060006101000a81548160ff0219169083151502179055506001600660003373ffffffffffffffffffffffffffffffffffffffff1673ffffffffffffffffffffffffffffffffffffffff16815260200190815260200160002060006101000a81548160ff02191690831515021790555050565b6004818154811061063057600080fd5b906000526020600020016000915054906101000a900473ffffffffffffffffffffffffffffffffffffffff1681565b600081519050919050565b600082825260208201905092915050565b60005b8381101561069957808201518184015260208101905061067e565b838111156106a8576000848401525b50505050565b6000601f19601f8301169050919050565b60006106ca8261065f565b6106d4818561066a565b93506106e481856020860161067b565b6106ed816106ae565b840191505092915050565b6000602082019050818103600083015261071281846106bf565b905092915050565b600073ffffffffffffffffffffffffffffffffffffffff82169050919050565b6000819050919050565b600061075f61075a6107558461071a565b61073a565b61071a565b9050919050565b600061077182610744565b9050919050565b600061078382610766565b9050919050565b61079381610778565b82525050565b60006020820190506107ae600083018461078a565b92915050565b600080fd5b60006107c48261071a565b9050919050565b6107d4816107b9565b81146107df57600080fd5b50565b6000813590506107f1816107cb565b92915050565b60006020828403121561080d5761080c6107b4565b5b600061081b848285016107e2565b91505092915050565b6000819050919050565b61083781610824565b82525050565b6000602082019050610852600083018461082e565b92915050565b600061086382610766565b9050919050565b61087381610858565b82525050565b600060208201905061088e600083018461086a565b92915050565b60008115159050919050565b6108a981610894565b82525050565b60006020820190506108c460008301846108a0565b92915050565b6108d3816107b9565b82525050565b60006020820190506108ee60008301846108ca565b92915050565b6108fd81610824565b811461090857600080fd5b50565b60008135905061091a816108f4565b92915050565b600060208284031215610936576109356107b4565b5b60006109448482850161090b565b91505092915050565b7f4e487b7100000000000000000000000000000000000000000000000000000000600052602260045260246000fd5b6000600282049050600182168061099457607f821691505b6020821081036109a7576109a661094d565b5b50919050565b7f616d6f756e742063616e6e6f7420626520300000000000000000000000000000600082015250565b60006109e360128361066a565b91506109ee826109ad565b602082019050919050565b60006020820190508181036000830152610a12816109d6565b9050919050565b6000606082019050610a2e60008301866108ca565b610a3b60208301856108ca565b610a48604083018461082e565b949350505050565b610a5981610894565b8114610a6457600080fd5b50565b600081519050610a7681610a50565b92915050565b600060208284031215610a9257610a916107b4565b5b6000610aa084828501610a67565b91505092915050565b7f4e487b7100000000000000000000000000000000000000000000000000000000600052601160045260246000fd5b6000610ae382610824565b9150610aee83610824565b9250827fffffffffffffffffffffffffffffffffffffffffffffffffffffffffffffffff03821115610b2357610b22610aa9565b5b82820190509291505056fea26469706673582212206aea0ddb9122b8a8c70c9d8448cb4c3adf1a7948d8fd47ce94858fbdaab72d2064736f6c634300080f0033",
  "immutableReferences": {},
  "source": "// SPDX-License-Identifier: MIT\r\npragma solidity ^0.8.0;\r\n\r\nimport \"./RWD.sol\";\r\nimport \"./Tether.sol\";\r\n\r\ncontract DecentralBank {\r\n    string public name = \"Decentral Bank\";\r\n    address public owner;\r\n    Tether public tether;\r\n    RWD public rwd;\r\n\r\n    address[] public stakers;\r\n\r\n    mapping(address => uint) public stakingBalance; \r\n    mapping(address => bool) public hasStaked;\r\n    mapping(address => bool) public isStaking;\r\n\r\nconstructor(RWD _rwd, Tether _tether) public {\r\n    rwd = _rwd;\r\n    tether = _tether;\r\n}\r\n\r\n\r\n//staking function\r\nfunction depositTokens(uint _amount) public {\r\n    // require staking amount to be greater than zero\r\n    require(_amount > 0, \"amount cannot be 0\");\r\n\r\n    // Transfer tether tokens to this contract address for staking\r\n    tether.transferFrom(msg.sender, address(this), _amount);\r\n\r\n    // Update staking Balance \r\n    stakingBalance[msg.sender] = stakingBalance[msg.sender] + _amount;\r\n\r\n    if(!hasStaked[msg.sender]) {\r\n        stakers.push(msg.sender);\r\n    }\r\n\r\n    // update staking Balance \r\n    isStaking[msg.sender] = true;\r\n    hasStaked[msg.sender] = true;\r\n}\r\n\r\n}\r\n\r\n",
  "sourcePath": "C:\\Users\\Hp Folio\\Yaild-faming-DApp\\defi-staking-app-starter\\src\\contracts\\DecentralBank.sol",
  "compiler": {
    "name": "solc",
    "version": "0.8.15+commit.e14f2714.Emscripten.clang"
  },
  "schemaVersion": "3.4.7",
  "updatedAt": "2022-07-10T10:29:48.770Z",
  "networkType": "ethereum",
  "devdoc": {
    "kind": "dev",
    "methods": {},
    "version": 1
  },
  "userdoc": {
    "kind": "user",
    "methods": {},
    "version": 1
  }
}